{
  "contractName": "Superheroes",
  "abi": [
    {
      "inputs": [],
      "payable": false,
      "stateMutability": "nonpayable",
      "type": "constructor"
    },
    {
      "anonymous": false,
      "inputs": [
        {
          "indexed": false,
          "internalType": "address",
          "name": "author",
          "type": "address"
        },
        {
          "indexed": false,
          "internalType": "uint256",
          "name": "mark",
          "type": "uint256"
        },
        {
          "indexed": false,
          "internalType": "string",
          "name": "text",
          "type": "string"
        }
      ],
      "name": "NewReview",
      "type": "event"
    },
    {
      "anonymous": false,
      "inputs": [
        {
          "indexed": false,
          "internalType": "uint256",
          "name": "id",
          "type": "uint256"
        },
        {
          "indexed": false,
          "internalType": "string",
          "name": "name",
          "type": "string"
        },
        {
          "indexed": false,
          "internalType": "string",
          "name": "avatar",
          "type": "string"
        },
        {
          "indexed": false,
          "internalType": "string",
          "name": "category",
          "type": "string"
        },
        {
          "indexed": false,
          "internalType": "string",
          "name": "description",
          "type": "string"
        }
      ],
      "name": "NewSuperhero",
      "type": "event"
    },
    {
      "constant": true,
      "inputs": [
        {
          "internalType": "uint256",
          "name": "",
          "type": "uint256"
        }
      ],
      "name": "superheroes",
      "outputs": [
        {
          "internalType": "uint256",
          "name": "id",
          "type": "uint256"
        },
        {
          "internalType": "string",
          "name": "name",
          "type": "string"
        },
        {
          "internalType": "string",
          "name": "avatar",
          "type": "string"
        },
        {
          "internalType": "string",
          "name": "category",
          "type": "string"
        },
        {
          "internalType": "string",
          "name": "description",
          "type": "string"
        }
      ],
      "payable": false,
      "stateMutability": "view",
      "type": "function"
    },
    {
      "constant": false,
      "inputs": [
        {
          "internalType": "uint256",
          "name": "superHeroID",
          "type": "uint256"
        },
        {
          "internalType": "uint256",
          "name": "mark",
          "type": "uint256"
        },
        {
          "internalType": "string",
          "name": "reviewText",
          "type": "string"
        }
      ],
      "name": "review",
      "outputs": [],
      "payable": false,
      "stateMutability": "nonpayable",
      "type": "function"
    },
    {
      "constant": false,
      "inputs": [
        {
          "internalType": "string",
          "name": "name",
          "type": "string"
        },
        {
          "internalType": "string",
          "name": "avatar",
          "type": "string"
        },
        {
          "internalType": "string",
          "name": "category",
          "type": "string"
        },
        {
          "internalType": "string",
          "name": "description",
          "type": "string"
        }
      ],
      "name": "addSuperhero",
      "outputs": [
        {
          "internalType": "uint256",
          "name": "heroID",
          "type": "uint256"
        },
        {
          "internalType": "string",
          "name": "heroName",
          "type": "string"
        },
        {
          "internalType": "string",
          "name": "heroAvatar",
          "type": "string"
        },
        {
          "internalType": "string",
          "name": "heroCategory",
          "type": "string"
        },
        {
          "internalType": "string",
          "name": "heroDescription",
          "type": "string"
        }
      ],
      "payable": false,
      "stateMutability": "nonpayable",
      "type": "function"
    },
    {
      "constant": false,
      "inputs": [
        {
          "internalType": "uint256",
          "name": "heroID",
          "type": "uint256"
        }
      ],
      "name": "removeSuperHero",
      "outputs": [],
      "payable": false,
      "stateMutability": "nonpayable",
      "type": "function"
    },
    {
      "constant": true,
      "inputs": [],
      "name": "getSuperHeroes",
      "outputs": [
        {
          "components": [
            {
              "internalType": "uint256",
              "name": "id",
              "type": "uint256"
            },
            {
              "internalType": "string",
              "name": "name",
              "type": "string"
            },
            {
              "internalType": "string",
              "name": "avatar",
              "type": "string"
            },
            {
              "internalType": "string",
              "name": "category",
              "type": "string"
            },
            {
              "internalType": "string",
              "name": "description",
              "type": "string"
            }
          ],
          "internalType": "struct Superheroes.Superhero[]",
          "name": "result",
          "type": "tuple[]"
        }
      ],
      "payable": false,
      "stateMutability": "view",
      "type": "function"
    },
    {
      "constant": true,
      "inputs": [
        {
          "internalType": "uint256",
          "name": "id",
          "type": "uint256"
        }
      ],
      "name": "getHero",
      "outputs": [
        {
          "components": [
            {
              "internalType": "uint256",
              "name": "id",
              "type": "uint256"
            },
            {
              "internalType": "string",
              "name": "name",
              "type": "string"
            },
            {
              "internalType": "string",
              "name": "avatar",
              "type": "string"
            },
            {
              "internalType": "string",
              "name": "category",
              "type": "string"
            },
            {
              "internalType": "string",
              "name": "description",
              "type": "string"
            }
          ],
          "internalType": "struct Superheroes.Superhero",
          "name": "hero",
          "type": "tuple"
        }
      ],
      "payable": false,
      "stateMutability": "view",
      "type": "function"
    },
    {
      "constant": true,
      "inputs": [
        {
          "internalType": "uint256",
          "name": "superheroID",
          "type": "uint256"
        }
      ],
      "name": "getSuperheroReviews",
      "outputs": [
        {
          "components": [
            {
              "internalType": "address",
              "name": "author",
              "type": "address"
            },
            {
              "internalType": "uint256",
              "name": "mark",
              "type": "uint256"
            },
            {
              "internalType": "string",
              "name": "text",
              "type": "string"
            }
          ],
          "internalType": "struct Superheroes.Review[]",
          "name": "reviews",
          "type": "tuple[]"
        }
      ],
      "payable": false,
      "stateMutability": "view",
      "type": "function"
    }
  ],
  "bytecode": "0x608060405234801561001057600080fd5b5033600460006101000a81548173ffffffffffffffffffffffffffffffffffffffff021916908373ffffffffffffffffffffffffffffffffffffffff160217905550611ce0806100616000396000f3fe608060405234801561001057600080fd5b506004361061007c5760003560e01c806328a5fa321161005b57806328a5fa32146101015780636362d27d146101315780638261cf2b1461014d578063ce1710131461016b5761007c565b8062cbf868146100815780630938b5a3146100b557806321d80111146100d1575b600080fd5b61009b6004803603610096919081019061142d565b61019f565b6040516100ac959493929190611a4f565b60405180910390f35b6100cf60048036036100ca9190810190611456565b610442565b005b6100eb60048036036100e6919081019061142d565b610622565b6040516100f891906119be565b60405180910390f35b61011b6004803603610116919081019061142d565b610934565b604051610128919061191a565b60405180910390f35b61014b6004803603610146919081019061142d565b610aa8565b005b610155610c5a565b604051610162919061193c565b60405180910390f35b6101856004803603610180919081019061136a565b610f4b565b6040516101969594939291906119e0565b60405180910390f35b600081815481106101ac57fe5b9060005260206000209060050201600091509050806000015490806001018054600181600116156101000203166002900480601f01602080910402602001604051908101604052809291908181526020018280546001816001161561010002031660029004801561025e5780601f106102335761010080835404028352916020019161025e565b820191906000526020600020905b81548152906001019060200180831161024157829003601f168201915b505050505090806002018054600181600116156101000203166002900480601f0160208091040260200160405190810160405280929190818152602001828054600181600116156101000203166002900480156102fc5780601f106102d1576101008083540402835291602001916102fc565b820191906000526020600020905b8154815290600101906020018083116102df57829003601f168201915b505050505090806003018054600181600116156101000203166002900480601f01602080910402602001604051908101604052809291908181526020018280546001816001161561010002031660029004801561039a5780601f1061036f5761010080835404028352916020019161039a565b820191906000526020600020905b81548152906001019060200180831161037d57829003601f168201915b505050505090806004018054600181600116156101000203166002900480601f0160208091040260200160405190810160405280929190818152602001828054600181600116156101000203166002900480156104385780601f1061040d57610100808354040283529160200191610438565b820191906000526020600020905b81548152906001019060200180831161041b57829003601f168201915b5050505050905085565b600073ffffffffffffffffffffffffffffffffffffffff163373ffffffffffffffffffffffffffffffffffffffff1614156104b2576040517f08c379a00000000000000000000000000000000000000000000000000000000081526004016104a99061195e565b60405180910390fd5b60006104bd84610622565b600001511415610502576040517f08c379a00000000000000000000000000000000000000000000000000000000081526004016104f99061199e565b60405180910390fd5b6003600084815260200190815260200160002060405180606001604052803373ffffffffffffffffffffffffffffffffffffffff168152602001848152602001838152509080600181540180825580915050906001820390600052602060002090600302016000909192909190915060008201518160000160006101000a81548173ffffffffffffffffffffffffffffffffffffffff021916908373ffffffffffffffffffffffffffffffffffffffff1602179055506020820151816001015560408201518160020190805190602001906105de929190611163565b505050507f6c881ec046e8da311aeb0b911f4565ec6b4e5a996536e027169884f0d55d99e4338383604051610615939291906118dc565b60405180910390a1505050565b61062a6111e3565b60008090505b60055481101561092d57826000828154811061064857fe5b9060005260206000209060050201600001541415610920576000818154811061066d57fe5b90600052602060002090600502016040518060a001604052908160008201548152602001600182018054600181600116156101000203166002900480601f0160208091040260200160405190810160405280929190818152602001828054600181600116156101000203166002900480156107295780601f106106fe57610100808354040283529160200191610729565b820191906000526020600020905b81548152906001019060200180831161070c57829003601f168201915b50505050508152602001600282018054600181600116156101000203166002900480601f0160208091040260200160405190810160405280929190818152602001828054600181600116156101000203166002900480156107cb5780601f106107a0576101008083540402835291602001916107cb565b820191906000526020600020905b8154815290600101906020018083116107ae57829003601f168201915b50505050508152602001600382018054600181600116156101000203166002900480601f01602080910402602001604051908101604052809291908181526020018280546001816001161561010002031660029004801561086d5780601f106108425761010080835404028352916020019161086d565b820191906000526020600020905b81548152906001019060200180831161085057829003601f168201915b50505050508152602001600482018054600181600116156101000203166002900480601f01602080910402602001604051908101604052809291908181526020018280546001816001161561010002031660029004801561090f5780601f106108e45761010080835404028352916020019161090f565b820191906000526020600020905b8154815290600101906020018083116108f257829003601f168201915b50505050508152505091505061092f565b8080600101915050610630565b505b919050565b606060036000838152602001908152602001600020805480602002602001604051908101604052809291908181526020016000905b82821015610a9d57838290600052602060002090600302016040518060600160405290816000820160009054906101000a900473ffffffffffffffffffffffffffffffffffffffff1673ffffffffffffffffffffffffffffffffffffffff1673ffffffffffffffffffffffffffffffffffffffff16815260200160018201548152602001600282018054600181600116156101000203166002900480601f016020809104026020016040519081016040528092919081815260200182805460018160011615610100020316600290048015610a855780601f10610a5a57610100808354040283529160200191610a85565b820191906000526020600020905b815481529060010190602001808311610a6857829003601f168201915b50505050508152505081526020019060010190610969565b505050509050919050565b600460009054906101000a900473ffffffffffffffffffffffffffffffffffffffff1673ffffffffffffffffffffffffffffffffffffffff163373ffffffffffffffffffffffffffffffffffffffff1614610b38576040517f08c379a0000000000000000000000000000000000000000000000000000000008152600401610b2f9061197e565b60405180910390fd5b6040518060a00160405280600081526020016040518060200160405280600081525081526020016040518060200160405280600081525081526020016040518060200160405280600081525081526020016040518060200160405280600081525081525060008281548110610ba957fe5b9060005260206000209060050201600082015181600001556020820151816001019080519060200190610bdd929190611163565b506040820151816002019080519060200190610bfa929190611163565b506060820151816003019080519060200190610c17929190611163565b506080820151816004019080519060200190610c34929190611163565b50905050600360008281526020019081526020016000206000610c579190611212565b50565b60606000805480602002602001604051908101604052809291908181526020016000905b82821015610f4257838290600052602060002090600502016040518060a001604052908160008201548152602001600182018054600181600116156101000203166002900480601f016020809104026020016040519081016040528092919081815260200182805460018160011615610100020316600290048015610d445780601f10610d1957610100808354040283529160200191610d44565b820191906000526020600020905b815481529060010190602001808311610d2757829003601f168201915b50505050508152602001600282018054600181600116156101000203166002900480601f016020809104026020016040519081016040528092919081815260200182805460018160011615610100020316600290048015610de65780601f10610dbb57610100808354040283529160200191610de6565b820191906000526020600020905b815481529060010190602001808311610dc957829003601f168201915b50505050508152602001600382018054600181600116156101000203166002900480601f016020809104026020016040519081016040528092919081815260200182805460018160011615610100020316600290048015610e885780601f10610e5d57610100808354040283529160200191610e88565b820191906000526020600020905b815481529060010190602001808311610e6b57829003601f168201915b50505050508152602001600482018054600181600116156101000203166002900480601f016020809104026020016040519081016040528092919081815260200182805460018160011615610100020316600290048015610f2a5780601f10610eff57610100808354040283529160200191610f2a565b820191906000526020600020905b815481529060010190602001808311610f0d57829003601f168201915b50505050508152505081526020019060010190610c7e565b50505050905090565b6000606080606080600460009054906101000a900473ffffffffffffffffffffffffffffffffffffffff1673ffffffffffffffffffffffffffffffffffffffff163373ffffffffffffffffffffffffffffffffffffffff1614610fe3576040517f08c379a0000000000000000000000000000000000000000000000000000000008152600401610fda9061197e565b60405180910390fd5b600560008154809291906001019190505550610ffd6111e3565b6040518060a0016040528060055481526020018b81526020018a81526020018981526020018881525090506000819080600181540180825580915050906001820390600052602060002090600502016000909192909190915060008201518160000155602082015181600101908051906020019061107c929190611163565b506040820151816002019080519060200190611099929190611163565b5060608201518160030190805190602001906110b6929190611163565b5060808201518160040190805190602001906110d3929190611163565b505050507ff16ec575b16e22b7921b0efd40fba0527c920741baf433ce9ad70bd4a31273296005548260200151836040015184606001518560800151604051611120959493929190611a4f565b60405180910390a1806000015181602001518260400151836060015184608001518393508292508191508090509550955095509550955050945094509450945094565b828054600181600116156101000203166002900490600052602060002090601f016020900481019282601f106111a457805160ff19168380011785556111d2565b828001600101855582156111d2579182015b828111156111d15782518255916020019190600101906111b6565b5b5090506111df9190611236565b5090565b6040518060a0016040528060008152602001606081526020016060815260200160608152602001606081525090565b5080546000825560030290600052602060002090810190611233919061125b565b50565b61125891905b8082111561125457600081600090555060010161123c565b5090565b90565b6112b691905b808211156112b257600080820160006101000a81549073ffffffffffffffffffffffffffffffffffffffff021916905560018201600090556002820160006112a991906112b9565b50600301611261565b5090565b90565b50805460018160011615610100020316600290046000825580601f106112df57506112fe565b601f0160209004906000526020600020908101906112fd9190611236565b5b50565b600082601f83011261131257600080fd5b813561132561132082611aeb565b611abe565b9150808252602083016020830185838301111561134157600080fd5b61134c838284611c33565b50505092915050565b60008135905061136481611c86565b92915050565b6000806000806080858703121561138057600080fd5b600085013567ffffffffffffffff81111561139a57600080fd5b6113a687828801611301565b945050602085013567ffffffffffffffff8111156113c357600080fd5b6113cf87828801611301565b935050604085013567ffffffffffffffff8111156113ec57600080fd5b6113f887828801611301565b925050606085013567ffffffffffffffff81111561141557600080fd5b61142187828801611301565b91505092959194509250565b60006020828403121561143f57600080fd5b600061144d84828501611355565b91505092915050565b60008060006060848603121561146b57600080fd5b600061147986828701611355565b935050602061148a86828701611355565b925050604084013567ffffffffffffffff8111156114a757600080fd5b6114b386828701611301565b9150509250925092565b60006114c98383611758565b905092915050565b60006114dd8383611833565b905092915050565b6114ee81611bfd565b82525050565b6114fd81611bc1565b82525050565b600061150e82611b37565b6115188185611b7d565b93508360208202850161152a85611b17565b8060005b85811015611566578484038952815161154785826114bd565b945061155283611b63565b925060208a0199505060018101905061152e565b50829750879550505050505092915050565b600061158382611b42565b61158d8185611b8e565b93508360208202850161159f85611b27565b8060005b858110156115db57848403895281516115bc85826114d1565b94506115c783611b70565b925060208a019950506001810190506115a3565b50829750879550505050505092915050565b60006115f882611b58565b6116028185611bb0565b9350611612818560208601611c42565b61161b81611c75565b840191505092915050565b600061163182611b4d565b61163b8185611b9f565b935061164b818560208601611c42565b61165481611c75565b840191505092915050565b600061166a82611b4d565b6116748185611bb0565b9350611684818560208601611c42565b61168d81611c75565b840191505092915050565b60006116a5601783611bb0565b91507f596f75206d7573742062652061207265616c20757365720000000000000000006000830152602082019050919050565b60006116e5601683611bb0565b91507f536f7272792c206f6e6c7920666f72206f776e657273000000000000000000006000830152602082019050919050565b6000611725601083611bb0565b91507f4865726f206d75737420657869737473000000000000000000000000000000006000830152602082019050919050565b600060608301600083015161177060008601826114f4565b50602083015161178360208601826118be565b506040830151848203604086015261179b8282611626565b9150508091505092915050565b600060a0830160008301516117c060008601826118be565b50602083015184820360208601526117d88282611626565b915050604083015184820360408601526117f28282611626565b9150506060830151848203606086015261180c8282611626565b915050608083015184820360808601526118268282611626565b9150508091505092915050565b600060a08301600083015161184b60008601826118be565b50602083015184820360208601526118638282611626565b9150506040830151848203604086015261187d8282611626565b915050606083015184820360608601526118978282611626565b915050608083015184820360808601526118b18282611626565b9150508091505092915050565b6118c781611bf3565b82525050565b6118d681611bf3565b82525050565b60006060820190506118f160008301866114e5565b6118fe60208301856118cd565b818103604083015261191081846115ed565b9050949350505050565b600060208201905081810360008301526119348184611503565b905092915050565b600060208201905081810360008301526119568184611578565b905092915050565b6000602082019050818103600083015261197781611698565b9050919050565b60006020820190508181036000830152611997816116d8565b9050919050565b600060208201905081810360008301526119b781611718565b9050919050565b600060208201905081810360008301526119d881846117a8565b905092915050565b600060a0820190506119f560008301886118cd565b8181036020830152611a0781876115ed565b90508181036040830152611a1b81866115ed565b90508181036060830152611a2f81856115ed565b90508181036080830152611a4381846115ed565b90509695505050505050565b600060a082019050611a6460008301886118cd565b8181036020830152611a76818761165f565b90508181036040830152611a8a818661165f565b90508181036060830152611a9e818561165f565b90508181036080830152611ab2818461165f565b90509695505050505050565b6000604051905081810181811067ffffffffffffffff82111715611ae157600080fd5b8060405250919050565b600067ffffffffffffffff821115611b0257600080fd5b601f19601f8301169050602081019050919050565b6000819050602082019050919050565b6000819050602082019050919050565b600081519050919050565b600081519050919050565b600081519050919050565b600081519050919050565b6000602082019050919050565b6000602082019050919050565b600082825260208201905092915050565b600082825260208201905092915050565b600082825260208201905092915050565b600082825260208201905092915050565b6000611bcc82611bd3565b9050919050565b600073ffffffffffffffffffffffffffffffffffffffff82169050919050565b6000819050919050565b6000611c0882611c0f565b9050919050565b6000611c1a82611c21565b9050919050565b6000611c2c82611bd3565b9050919050565b82818337600083830152505050565b60005b83811015611c60578082015181840152602081019050611c45565b83811115611c6f576000848401525b50505050565b6000601f19601f8301169050919050565b611c8f81611bf3565b8114611c9a57600080fd5b5056fea365627a7a723158203ee88b29c9788694a88c77822c6d52f3c1181784534ccdb51dab6c863f998a6c6c6578706572696d656e74616cf564736f6c63430005100040",
  "source": "pragma solidity ^0.5.0;\npragma experimental ABIEncoderV2;\n\ncontract Superheroes {\n  Superhero[] public superheroes;\n  mapping (uint => uint) superheroesVotes;\n  mapping (address => uint[]) userVotes;\n  mapping (uint => Review[]) superheroesReviews;\n\n  address private owner;\n\n  modifier onlyOwner() {\n    require(msg.sender == owner, \"Sorry, only for owners\");\n    _;\n  }\n\n  constructor() public {\n    owner = msg.sender;\n  }\n\n  uint superheroCount;\n\n  struct Review {\n    address author;\n    uint mark;\n    string text;\n  }\n\n  struct Superhero {\n    uint id;\n    string name;\n    string avatar;\n    string category;\n    string description;\n  }\n\n  event NewReview(address author, uint mark, string text);\n  event NewSuperhero(uint id, string  name, string avatar, string category, string description);\n\n  function review(uint superHeroID, uint mark, string memory reviewText) public {\n    require(msg.sender != address(0), \"You must be a real user\");\n    require(getHero(superHeroID).id!=0, \"Hero must exists\");\n\n    superheroesReviews[superHeroID].push(Review(msg.sender, mark, reviewText));\n    emit NewReview(msg.sender, mark, reviewText);\n  }\n\n  function addSuperhero(string memory name, string memory avatar, string memory category, string memory description) public onlyOwner returns (uint heroID, string memory heroName, string memory heroAvatar, string memory heroCategory, string memory heroDescription) {\n    superheroCount++;\n    Superhero memory newHero = Superhero(superheroCount, name, avatar, category, description);\n    superheroes.push(newHero);\n    emit NewSuperhero(superheroCount, newHero.name, newHero.avatar, newHero.category, newHero.description);\n    return (newHero.id, newHero.name, newHero.avatar, newHero.category, newHero.description);\n  }\n\n  function removeSuperHero(uint heroID) public onlyOwner {\n    superheroes[heroID] = Superhero(0, '', '', '', '');\n    delete superheroesReviews[heroID];\n  }\n\n  function string_tobytes( string memory s) pure internal returns (bytes memory result){\n    bytes memory b3 = bytes(s);\n    return b3;\n  }\n\n  function getSuperHeroes() public view returns (Superhero[] memory result ) {\n    return superheroes;\n  }\n\n  function getHero(uint id) public view returns(Superhero memory hero) {\n    for(uint i = 0; i<superheroCount;i++) {\n      if(superheroes[i].id==id) {\n        return superheroes[i];\n      }\n    }\n  }\n\n  function getSuperheroReviews(uint superheroID) public view returns(Review[] memory reviews) {\n    return superheroesReviews[superheroID];\n  }\n\n\n}\n",
  "sourcePath": "/root/angular-ethereum-decentralized-application/contracts/Superheroes.sol",
  "compiler": {
    "name": "solc",
    "version": "0.5.16+commit.9c3226ce.Emscripten.clang"
  },
  "schemaVersion": "3.2.5",
  "updatedAt": "2020-09-21T04:32:51.163Z",
  "networkType": "ethereum",
  "devdoc": {
    "methods": {}
  },
  "userdoc": {
    "methods": {}
  }
}